:020000040800F2
:10000000880D0020E1100008710600087306000842
:10001000770600087B0600087F0600080000000045
:10002000000000000000000000000000830600083F
:10003000850600080000000087060008F910000887
:10004000FB100008FB100008FB100008FB10000864
:10005000FB100008FB100008FB100008FB10000854
:10006000FB100008FB100008FB100008FB10000844
:10007000FB100008FB100008FB100008FB10000834
:10008000FB100008FB100008FB100008FB10000824
:10009000FB100008FB100008FB100008FB10000814
:1000A000FB100008FB100008FB100008FB10000804
:1000B000FB100008FB080008FB100008FB100008FC
:1000C000FB100008FB100008FB100008FB100008E4
:1000D000FB100008D32C0008DF2D0008FB100008DF
:1000E000FB100008FB100008FB10000800F002F8ED
:1000F00000F05FF80AA090E8000C82448344AAF163
:100100000107DA4501D100F054F8AFF2090EBAE860
:100110000F0013F0010F18BFFB1A43F0010318473B
:10012000B02F0000D02F00000A444FF0000C10F850
:10013000013B13F0070408BF10F8014B1D1108BF65
:1001400010F8015B641E05D010F8016B641E01F805
:10015000016BF9D113F0080F1EBF10F8014BAD1C55
:100160000C1B09D16D1E58BF01F801CBFAD505E073
:1001700014F8016B01F8016B6D1EF9D59142D6D3CD
:10018000704700000023002400250026103A28BFF5
:1001900078C1FBD8520728BF30C148BF0B607047F9
:1001A000642902F08586002070471FB51FBD10B579
:1001B00010BD02F052FF1146FFF7F7FF00F0A4F95F
:1001C00002F070FF03B4FFF7F2FF03BC02F078FF08
:1001D00010B5F5480078312842D10020F249087066
:1001E0004FF40051F14801F018F9F1480078401C33
:1001F000EF49087008460078052801DD01200870E5
:10020000EB480078012803D1EA4800F019FF1EE00E
:10021000E7480078022803D1E74800F011FF16E014
:10022000E3480078032803D1E44800F009FF0EE01A
:10023000DF480078042803D1E14800F001FF06E020
:10024000DB480078052802D1DE4800F0F9FE4FF4C3
:10025000FA7002F0A2FC4FF40051D44801F0DBF830
:10026000D1480078322804D10020CF49087000F02E
:100270000AFFCD480078332804D10020CA4908700D
:1002800000F00EFFC8480078452837D10020C64945
:1002900008704FF40051C54801F0BFF8C448007819
:1002A000012803D1C34800F0CBFE1EE0C04800780F
:1002B000022803D1C04800F0C3FE16E0BC48007815
:1002C000032803D1BD4800F0BBFE0EE0B84800781B
:1002D000042803D1BA4800F0B3FE06E0B448007821
:1002E000052802D1B74800F0ABFE4FF4FA7002F0D7
:1002F00054FC4FF40051AD4801F08DF810BD10B51D
:10030000B148007800281EDD4FF40041A74801F0F5
:1003100084F8AD480078401CAB4908700846007866
:100320000A2810DB0020A949A94A12688854A64966
:100330000870A7490860A54800F082FE4FF400410C
:100340009A4801F068F810BD10B5A248017806205F
:1003500000F0B0FDA0480178162000F0D6FD9F48BF
:100360000168282000F0FFFD9D480168382000F05A
:10037000FAFD10BD10B59A480068002836D14FF438
:1003800080418A4801F049F89348037891480278FF
:1003900094A19D4802F044FDFFF7D6FF00F012FD46
:1003A00000F010FD984800F04BFE4FF4FA7002F098
:1003B000F4FB4FF4FA7002F0F0FB4FF4FA7002F025
:1003C000ECFB4FF4FA7002F0E8FB4FF4FA7002F025
:1003D000E4FB4FF4FA7002F0E0FB804800688049CB
:1003E00008604FF48041714801F015F810BD10B558
:1003F00086480078401C8549087008460078122815
:1004000005DB002008707449724800F003FC10BD41
:1004100010B57FA1002000F03BFD7FA1102000F06F
:1004200037FD7FA1202000F033FD7FA1302000F0B8
:100430002FFD10BD10B500F0F2FC7DA1002000F0F2
:1004400027FD7FA1102000F023FD32E06348016802
:10045000202000F088FD5448007831280CD100207D
:10046000514908705D480068B0F5616F04D25B487F
:1004700000680A30594908604B48007832280BD18F
:10048000002049490870554800680A2804D9534893
:1004900000680A385149086000F094FC322002F0EC
:1004A0007CFB41480078452803D100203E49087074
:1004B00000E0CBE700BF00206549087000F0AFFC0A
:1004C00010BD08B501211D2001F0B4F901216148DA
:1004D00000F0C5FF0121604800F0C1FF012108467E
:1004E00001F0A8F901215C4800F0B9FF1820ADF82F
:1004F000000003208DF8020010208DF803006946EB
:10050000564800F0DBFE08BD02F00AFB02F072FB69
:10051000FFF7D7FF00F094FC00F0A6F900F0FEF919
:1005200041F61F41C82000F0BBF9FFF783FFFFF73A
:100530006FFF4FF4165002F063FB4FF4165002F0B9
:10054000EEFB4FF4FA7002F028FB45A000F078FDB6
:1005500043A000F075FD21480068214908600EE0C5
:10056000FFF745FFFFF7F0FEFFF732FEFFF702FF50
:1005700000F028FCFFF7C3FE322002F00EFBEFE78D
:100580003A480078401C39490870084600783228FB
:1005900009DB002008701248006820B1104800688C
:1005A000401E0F4908607047CC0100200010014038
:1005B000B50100200000002055000020AA00002006
:1005C000FF00002054010020FC01002072020020E6
:1005D000F8010020AA010020AB010020AC0100209E
:1005E000B0010020B5B1C7B0CEC2B6C83A2564C9C3
:1005F000E8D6C3B6C82020B5B1C7B0CAAAB6C825C8
:10060000642525524800000000020020B7010020A8
:10061000CEC2B6C83A000000CAAAB6C83A00000066
:10062000C9E8B6A83A000000B5B9BCC6CAB13A00DC
:10063000CEC2CAAAB6C8D7D4B6AFB2A5B1A8000078
:10064000CAB1BCE4BCE4B8F4C9E8B6A83A000000FA
:10065000CF0100200004300000023000000C0140F7
:10066000202020202020202000000000B6010020B3
:10067000704700BFFEE700BFFEE700BFFEE700BF18
:10068000FEE77047704770470CB50020019000905E
:100690006C48006840F480306A49086000BF6948CF
:1006A000006800F4003000900198401C0190009810
:1006B00018B90198B0F5A06FF1D16248006800F454
:1006C000003010B10120009001E00020009000985F
:1006D000012843D15C48006840F010005A49086086
:1006E0000846006820F0030008600846006840F0F3
:1006F0000200086053484068524948600846406814
:1007000048600846406840F4806048600846406899
:1007100020F47C1048600846406840F4E8104860C7
:100720000846006840F08070086000BF45480068D7
:1007300000F000700028F9D04248406820F0030023
:10074000404948600846406840F00200486000BFE9
:100750003C48406800F00C000828F9D10CBD10B5E9
:10076000FFF792FF10BD10B53648006840F0010059
:1007700034490860084640683449084031494860B7
:1007800008460068324908402E490860084600685B
:1007900020F4802008600846406820F4FE0048608D
:1007A0004FF41F008860FFF7DAFF4FF0006029491F
:1007B000086010BD10B5002100200022214B5B68AD
:1007C00003F00C0121B1042906D0082928D107E043
:1007D000214B224C236027E01F4B204C236023E059
:1007E000184B5B6803F47010164B5B6803F480329F
:1007F000022303EB904022B9194B4343174C23606B
:100800000DE0104B5B6803F4003323B1144B4343FA
:10081000124C236003E0104B4343104C236003E071
:100820000D4B0E4C236000BF00BF064B5B68C3F34B
:1008300003130C4CE15C094B1B68CB40074C236055
:1008400010BD000000100240002002400000FFF830
:10085000FFFFF6FE08ED00E000127A00B80100206C
:1008600000093D00BC01002008B50121102000F066
:10087000E1FF4FF46040ADF8000003208DF8020066
:1008800010208DF803006946044800F017FD4FF46E
:100890006041024800F0BFFD08BD000000100140AB
:1008A0007FB505460C460121022000F0D0FFADF8CF
:1008B0000850ADF804400020ADF80A00ADF806007D
:1008C00001A9154801F0F2FA01221146124801F07F
:1008D00064FE1D208DF8000000208DF8010003202B
:1008E0008DF8020001208DF80300684600F01DFC21
:1008F0000121094801F036FE7FBD10B501210648EF
:1009000002F0F9F838B1FFF73BFE00F01BF80121C7
:10091000014802F001F910BD0004004008B50121B2
:10092000082000F087FF40F60340ADF800000320E8
:100930008DF8020048208DF803006946634800F0F6
:10094000BDFC08BD10B56248007830B1012822D046
:1009500002283ED003287BD183E04FF400615B483E
:1009600000F03FFD78B14FF48061584800F039FD48
:1009700048B10221554800F034FD20B1012153480F
:1009800000F02FFD18B901205149087002E0002045
:100990004F49087098E04FF400614C4800F021FD89
:1009A00078B14FF48061494800F01BFD48B1022145
:1009B000464800F016FD20B10121444800F011FD29
:1009C00018B902204249087002E00020404908702E
:1009D0007AE04FF400613D4800F003FD18B9312082
:1009E0003C4908701EE04FF48061384800F0F9FC83
:1009F00018B932203749087014E00221334800F05A
:100A0000F0FC18B93320334908700BE001212F485E
:100A100000F0E7FC18B945202E49087002E00020DC
:100A20002B4908702A480078022802D1032028495F
:100A300008702948007880B126480078312803D012
:100A400024480078322804D101202449087007E0A6
:100A500036E000202149087002E000201F4908709C
:100A600032E01E48007868B11C480078401C1B49E1
:100A7000087008460078052821DB0020087014491A
:100A800008701CE04FF40061104800F0AAFC98B117
:100A90004FF480610D4800F0A4FC68B102210B48BE
:100AA00000F09FFC40B10121084800F09AFC18B109
:100AB00000200749087002E003200549087003E0A0
:100AC00000200349087000BF00BF10BD000C0140AA
:100AD000CD010020CC010020CF010020CE0100205C
:100AE00008B50121042000F0A5FE1020ADF800009B
:100AF00003208DF8020010208DF80300694660483D
:100B000000F0DCFB10215E4800F085FC08BD08B554
:100B10000121042000F08EFE1020ADF8000003201B
:100B20008DF8020048208DF803006946544800F013
:100B3000C5FB08BD10B50024FFF7D2FF10215048B7
:100B400000F06BFC142002F028F810214C4800F053
:100B500062FCFFF7DCFF282001F0FBFF04E0601CD3
:100B6000C4B2052001F0F5FF1021454800F039FC22
:100B700008B1322CF3DB322C01DB012010BD002444
:100B800004E0601CC4B2052001F0E3FF10213C48E2
:100B900000F027FC08B9322CF3DB322C01DB0120FA
:100BA000ECE70020EAE770B50024002600252DE0E0
:100BB000002606E03046711C8EB2B0F5FA7F00DDEB
:100BC00005E010212E4800F00CFC0028F2D100BFF7
:100BD000002606E03046711C8EB2B0F5FA7F00DDCB
:100BE00005E01021264800F0FCFB0028F2D000BFF1
:100BF0001E2001F0AEFF6006040E1021204800F018
:100C0000F0FB08B144F00104681CC5B2082DCFDB2D
:100C1000204670BD7CB505460E4600200090019030
:100C20000024FFF787FF48BB00BF05E0FFF7BBFFCD
:100C30000DF80400601CC4B2052CF7DB9DF8000021
:100C40009DF8011008449DF8021008449DF8031017
:100C500008449DF80410884210D19DF800006421DA
:100C600090FBF1F201FB120030709DF8020090FB46
:100C7000F1F201FB1200287000207CBD0120FCE78E
:100C80000008014010B5022001F063FF10BD70B5EF
:100C9000044600251BE0FFF7F5FF2021DE4800F0A9
:100CA000BCFB04F0800020B11021DB4800F0B3FB56
:100CB00003E01021D84800F0B0FBFFF7E3FF20214C
:100CC000D54800F0A8FB6006040E681CC5B2082DCC
:100CD000E1DB70BD10B504460821CF4800F09BFB56
:100CE000F820FFF7D4FFFFF7CDFF04F0F000FFF787
:100CF000CEFFFFF7C7FFF02101EA0410FFF7C7FF9F
:100D0000FFF7C0FF0821C44800F087FB10BD10B5F5
:100D100004460821C04800F07EFBFA20FFF7B7FF29
:100D2000FFF7B0FF04F0F000FFF7B1FFFFF7AAFFF5
:100D3000F02101EA0410FFF7AAFFFFF7A3FF082143
:100D4000B54800F06AFB10BD70B504460D46012D94
:100D500006D0022D0AD0032D0ED0042D18D111E09B
:100D600004F17F01C8B2FFF7B5FF12E004F18F0173
:100D7000C8B2FFF7AFFF0CE004F18701C8B2FFF77C
:100D8000A9FF06E004F19701C8B2FFF7A3FF00E056
:100D900000BF00BF70BD08B50121082000F04AFD6A
:100DA0003820ADF8000010208DF8030003208DF8E6
:100DB00002006946984800F081FA3821964800F010
:100DC0002AFB08BD10B500249448007830B30020F9
:100DD0009249087001210846FFF7B6FF00BF1BE0EB
:100DE000FFF750FF102C04D102210120FFF7ACFFC8
:100DF0000CE0202C04D103210120FFF7A5FF05E022
:100E0000302C03D104210120FFF79EFF8449085DA7
:100E1000FFF77DFF601CC4B2402CE1DB10BD10B5B4
:100E2000002400BF04E020207D490855601CC4B2A6
:100E3000402CF8DB012079490870FFF7C3FF10BD93
:100E400010B5FFF7A8FF3420FFF744FF642001F03E
:100E5000A4FE3020FFF73EFF642001F09EFE0C2030
:100E6000FFF738FF642001F098FE0120FFF732FF02
:100E7000642001F092FEFFF7D2FF10BD3F2800DD95
:100E80007047674A11540122644B1A7000BFF7E79C
:100E900008E00A78624B1A54421CD0B23F2800DDA9
:100EA0007047491C0A78002AF3D101225B4B1A7063
:100EB00000BFF5E73CB505460C46002000900190C8
:100EC0000A2094FBF0F03030C0B28DF800000A2008
:100ED00094FBF0F100FB11403030C0B28DF80100FE
:100EE00027208DF8020043208DF8030000208DF8A4
:100EF00004009DF80000302802D120208DF8000069
:100F000069462846FFF7C4FF3CBD3CB505460C4684
:100F10000020009001900A2094FBF0F03030C0B225
:100F20008DF800000A2094FBF0F100FB11403030F6
:100F3000C0B28DF8010025208DF8020052208DF8F6
:100F4000030048208DF8040000208DF805009DF86E
:100F50000000302802D120208DF800006946284684
:100F6000FFF796FF3CBD7CB506460C46002000907E
:100F70000190002542F21070B4FBF0F03030C0B2A6
:100F80008DF8000042F21070B4FBF0F100FB114448
:100F90004FF47A70B4FBF0F03030C0B28DF801003D
:100FA0004FF47A70B4FBF0F100FB11446420B4FB01
:100FB000F0F03030C0B28DF802006420B4FBF0F1E4
:100FC00000FB11440A20B4FBF0F03030C0B28DF8C1
:100FD00003000A20B4FBF0F100FB114030308DF823
:100FE000040053208DF8050000208DF8060000BF96
:100FF0000AE01DF80500302803D120200DF8050077
:1010000000E003E0681CC5B2032DF2DB00BF6946B7
:101010003046FFF73DFF7CBD000C0140D0010020B1
:101020003202002070B504460D46002605E014F893
:10103000010B01F0C2FE701C86B2AE42F7DB70BD40
:1010400070B504460026204601F06EFF0546FD20DF
:1010500001F0B3FEA81CC0F3072001F0AEFEA91CEE
:10106000C8B201F0AAFE012001F0A7FE012001F0A4
:10107000A4FE00BF04E0207801F09FFE641C761CF3
:10108000AE42F8D370BD10B5002400BF05E0114991
:10109000085D01F092FE601CC4B2042CF7DB10BDA9
:1010A00010B5002400BF05E00B49085D01F085FE86
:1010B000601CC4B2042CF7DB10BD10B5002400BFC7
:1010C00005E00649085D01F078FE601CC4B2042CFE
:1010D000F7DB10BDD5010020D9010020D10100208F
:1010E0000948804709480047FEE7FEE7FEE7FEE7BC
:1010F000FEE7FEE7FEE7FEE7FEE7FEE704480549F8
:10110000054A064B7047000067070008ED0000081D
:1011100088070020880D0020880900208809002009
:1011200031490143314A1160704770B500210023F5
:101130000F22C47804B32D4C246804F4E064C4F591
:10114000E064210AC1F10403CA40447804FA03F1BF
:101150008478144021430901254C0678A155047870
:1011600004F01F050124AC4005786D11AD0005F1B8
:10117000E025C5F8004109E0047804F01F050124CA
:10118000AC401C4D0678761145F8264070BD1A4AD1
:101190000A400243154B1B1F1A60704739B1134AAE
:1011A000121D12680243114B1B1D1A6006E00F4A04
:1011B000121D126882430D4B1B1D1A6070470428D4
:1011C00008D14FF0E021096941F004014FF0E0221D
:1011D000116107E04FF0E021096921F004014FF0AF
:1011E000E0221161704700000000FA050CED00E0FC
:1011F00000E400E080E100E080FFFF1F10B504463E
:10120000CC48844208D10121042000F02DFB0021AC
:10121000042000F029FB46E0C748844208D10121A0
:10122000082000F021FB0021082000F01DFB3AE01F
:10123000C248844208D10121102000F015FB002192
:10124000102000F011FB2EE0BD48844208D101219E
:10125000202000F009FB0021202000F005FB22E007
:10126000B848844208D10121402000F0FDFA002155
:10127000402000F0F9FA16E0B348844208D1012179
:10128000802000F0F1FA0021802000F0EDFA0AE061
:10129000AE48844207D10121801500F0E5FA002113
:1012A000A01500F0E1FA10BD10B50121084600F0CC
:1012B000DBFA0021012000F0D7FA10BD2DE9F04142
:1012C000024600250026002000230024002791F874
:1012D00003C00CF00F0591F803C00CF0100CBCF12A
:1012E000000F03D091F802C04CEA050591F800C048
:1012F000BCF1000F31D0146800202BE04FF0010C3E
:101300000CFA00F3B1F800C00CEA03069E4220D1AB
:1013100083004FF00F0C0CFA03F7BC4305FA03FCF3
:101320004CEA040491F803C0BCF1280F06D14FF039
:10133000010C0CFA00FCC2F814C00AE091F803C0DA
:10134000BCF1480F05D14FF0010C0CFA00FCC2F8BB
:1013500010C0401C0828D1D31460B1F800C0BCF103
:10136000FF0F34DD546800202EE000F1080C4FF030
:10137000010808FA0CF3B1F800C00CEA03069E421B
:1013800021D183004FF00F0C0CFA03F7BC4305FA90
:1013900003FC4CEA040491F803C0BCF1280F05D10A
:1013A00000F1080C08FA0CF8C2F8148091F803C098
:1013B000BCF1480F07D100F1080C4FF0010808FA02
:1013C0000CF8C2F81080401C0828CED35460BDE849
:1013D000F0814FF6FF710180022181700421C170FC
:1013E00070470246002093680B400BB1012000E0DB
:1013F000002070470146886880B27047024600208E
:10140000D3680B400BB1012000E00020704701467B
:10141000C86880B2704701617047416170470AB186
:10142000016100E041617047C16070474FF4803254
:101430000A438261816182618269826970470246E2
:101440000020434B18684FF68073184040EA0210A2
:1014500008433F4B186070473E49C8617047F0B57C
:101460000A46002300240021002500F00046B6F1C2
:10147000004F02D1364EF16901E0354E7168C0F37C
:10148000034583B200F44016B6F5401F08D121F0A1
:1014900070612F4E766826F070662D4F7E6012E0E8
:1014A00000F48016B6F5801F06D1032606FA05F46F
:1014B000A14341F0706106E0460D360103FA06F6DD
:1014C000B14341F0706122B1460D360103FA06F6D0
:1014D000314300F00046B6F1004F02D11C4EF161DD
:1014E00001E01B4E7160F0BD30B500228B071C0F70
:1014F0000F2303FA04F2164B08338C1053F82430F0
:101500009343134C08348D1044F8253023468C1037
:1015100053F824308C07240F00FA04F423430C4CB6
:1015200008348D1044F8253030BD0A49DC3108609C
:101530007047000000080140000C0140001001400D
:101540000014014000180140001C0140002001402F
:101550000000014000002042DF48006840F0010028
:10156000DD49086008464068DC490840DA494860BF
:1015700008460068DA490840D7490860084600680C
:1015800020F4802008600846406820F4FE0048608F
:101590004FF41F0088607047CF49096821F48031FB
:1015A000CD4A11601146096821F480211160B0F51F
:1015B000803F03D0B0F5802F0ED106E0C649096800
:1015C00041F48031C44A116007E0C349096841F41D
:1015D000A021C14A116000E000BF00BF704710B5F4
:1015E00001460022002300204A11012A02D1BA4CF0
:1015F000236806E0022A02D1B74C236A01E0B64C08
:10160000636A01F01F02012494401C400CB10120C8
:1016100000E0002010BD38B5002000900024002517
:1016200000BF3120FFF7DBFF05460098401C00900B
:101630000098B0F5A06F01D0002DF2D03120FFF757
:10164000CEFF08B1012400E00024204638BD014649
:101650000020A14A106820F0F80040EAC1001060A4
:101660007047A04908607047024600209A4B5868AE
:1016700020F47C1042EA01031843974B58607047EE
:1016800098490866704701460020934A506820F048
:1016900003000843506070478F48406800F00C001A
:1016A0007047014600208C4A506820F0F000084343
:1016B0005060704701460020874A506820F4E0607F
:1016C00008435060704701460020834A506820F468
:1016D000605040EAC1005060704729B17E4A527A9A
:1016E00002437D4B5A7204E07B4A527A82437A4B22
:1016F0005A7270477B49D831086070470146002014
:10170000754A506820F440400843506070470021FB
:10171000714A20321170704A82F82010012802D0DC
:1017200004280AD104E001216B4A2032117005E03F
:101730000521694A2032117000E000BF00BF7047E8
:101740006949086070476449096A0143624A116245
:101750007047654944390860704730B50021002260
:10176000002400235C4D6D6805F00C0121B10429B3
:1017700005D0082923D105E05C4D056022E05B4DD2
:1017800005601FE0544D6D6805F47012524D6D6890
:1017900005F48034022505EB92421CB9544D5543A3
:1017A00005600BE04C4D6D6805F400351DB1504DE2
:1017B0005543056002E04D4D5543056002E04B4D39
:1017C000056000BF00BF444D6D6805F0F0010909D8
:1017D000484D6B5C0568DD4045603F4D6D6805F424
:1017E000E061090A434D6B5C4568DD4085603A4D18
:1017F0006D6805F46051C90A3E4D6B5C4568DD407B
:10180000C560354D6D6805F44041890B3A4D6B5C00
:10181000C568B5FBF3F5056130BD29B12E4A5269A3
:1018200002432D4B5A6104E02B4A526982432A4BF2
:101830005A61704729B1284A92690243264B9A613E
:1018400004E0254A92698243234B9A61704729B18B
:10185000214AD2690243204BDA6104E01E4AD26970
:1018600082431D4BDA61704729B11B4AD26802439B
:10187000194BDA6004E0184AD2688243164BDA60EA
:10188000704729B1144A12690243134B1A6104E0EC
:10189000114A12698243104B1A617047124940394C
:1018A000086070470F49C86470470B49C87170479A
:1018B0000948406A40F08070074948627047014615
:1018C0000020054A92680A400AB1012000E0002089
:1018D0007047014988727047001002400000FFF80D
:1018E000FFFFF6FE000042428004424200127A00EE
:1018F00000093D00DD010020ED01002010B5044687
:10190000FB48844209D101218803FFF7ADFF002184
:101910004FF48040FFF7A8FF32E0F648844209D137
:1019200001214804FFF7ADFF00214FF40030FFF71D
:10193000A8FF25E0F048844209D101218804FFF77F
:10194000A0FF00214FF48020FFF79BFF18E0EB4839
:10195000844209D10121C804FFF793FF00214FF40D
:101960000020FFF78EFF0BE0E548844208D10121FB
:101970000805FFF786FF00214FF48010FFF781FF75
:1019800010BD2DE9F04786B005460E460024A2465C
:1019900000BFA1460027B08900B100BF2F462C8AA6
:1019A0004CF6FF700440F08804432C82AC894EF65C
:1019B000F3100440B0883189084371890843044317
:1019C000AC81AC8A4FF6FF400440B0890443AC823E
:1019D00001A8FFF7C2FEC648874202D1DDF810A079
:1019E00001E0DDF80CA0A88900F4004040B10AEB4A
:1019F000CA0000EB0A1031684900B0FBF1F807E0BB
:101A00000AEBCA0000EB0A1031688900B0FBF1F85C
:101A10006420B8FBF0F004012009642101FB108967
:101A2000A88900F4004040B1322000EBC900B0FBAF
:101A3000F1F000F00700044308E0322000EB091049
:101A40006421B0FBF1F000F00F0004432C8106B0DC
:101A5000BDE8F0874FF41651016000218180C180FC
:101A600001810C21418100218181704710B502461E
:101A70000020108A4FF2FF0318400B884C88234344
:101A80008C882343CC8823431843108210BD002147
:101A9000018041808180C180704721B1828942F4F8
:101AA0000052828104E082894DF6FF731A408281E0
:101AB0007047F0B50346002400260025002040F6BC
:101AC0006A17B94200D100BF1846C1F3421401F0B1
:101AD0001F06012707FA06F5012C01D10C3004E09E
:101AE000022C01D1103000E014301AB107682F43E6
:101AF000076002E00768AF430760F0BD1AB1838A50
:101B00000B43838202E0838A8B4383827047028A7D
:101B10004FF6F0731A400282028A0A43028270472B
:101B200082894FF2FF731A40828182890A4382813F
:101B3000704721B1828942F00202828104E08289E9
:101B40004FF6FD731A4082817047028A4FF6DF73A9
:101B50001A400282028A0A430282704721B1028A35
:101B600042F48042028204E0028A4BF6FF731A407C
:101B700002827047C1F3080282807047014688885C
:101B8000C0F308007047818941F0010181817047ED
:101B9000028BD2B20283028B42EA01220283704797
:101BA000028B02F47F420283028B0A430283704756
:101BB00021B1828A42F02002828204E0828A4FF6BA
:101BC000DF731A408282704721B1828A42F010028C
:101BD000828204E0828A4FF6EF731A408282704755
:101BE00021B1828A42F00802828204E0828A4FF6A2
:101BF000F7731A408282704721B1828942F4004211
:101C0000828103E08289C2F30E028281704721B192
:101C1000828A42F40062828204E0828A4FF2FF7379
:101C20001A4082827047828A4FF6FB731A40828282
:101C3000828A0A438282704721B1828A42F002027C
:101C4000828204E0828A4FF6FD731A4082827047D6
:101C500002460020B1F5007F00D100BF13880B4081
:101C60000BB1012000E00020704701F40072B2F5D2
:101C7000007F00D100BFCA430280704770B50246A2
:101C8000002400230025002040F66A16B14200D14E
:101C900000BFC1F3421501F01F03012606FA03F34A
:101CA000012D02D19689334006E0022D02D1168A19
:101CB000334001E0968A33400C12012606FA04F400
:101CC0001688344013B10CB1012000E0002070BD33
:101CD00010B50022002340F66A14A14200D100BFD3
:101CE0000A1201249440A3B2DC43048010BD00001A
:101CF000003801400044004000480040004C0040D3
:101D00000050004010B50446FE48844208D101212D
:101D1000C014FFF7A9FD0021E014FFF7A5FDC4E002
:101D2000B4F1804F08D101210846FFF7AAFD002138
:101D30000120FFF7A6FDB8E0F348844208D1012155
:101D40000220FFF79EFD00210220FFF79AFDACE084
:101D5000EE48844208D101210420FFF792FD0021C2
:101D60000420FFF78EFDA0E0E948844208D101215C
:101D70000820FFF786FD00210820FFF782FD94E090
:101D8000E448844208D101211020FFF77AFD0021A8
:101D90001020FFF776FD88E0DF48844208D101215A
:101DA0002020FFF76EFD00212020FFF76AFD7CE078
:101DB000DA48844208D101214014FFF755FD002183
:101DC0006014FFF751FD70E0D548844209D101212C
:101DD000C804FFF749FD00214FF40020FFF744FD40
:101DE00063E0D048844209D101210805FFF73CFD9A
:101DF00000214FF48010FFF737FD56E0CA488442B7
:101E000009D101214805FFF72FFD00214FF40010F3
:101E1000FFF72AFD49E0C548844208D1012140204E
:101E2000FFF72FFD00214020FFF72BFD3DE0C048CC
:101E3000844208D101218020FFF723FD002180206A
:101E4000FFF71FFD31E0BB48844208D10121801516
:101E5000FFF717FD0021A015FFF713FD25E0B64899
:101E6000844209D101210804FFF7FEFC00214FF450
:101E70008030FFF7F9FC18E0B048844209D1012115
:101E80004804FFF7F1FC00214FF40030FFF7ECFCB1
:101E90000BE0AB48844208D101218804FFF7E4FC41
:101EA00000214FF48020FFF7DFFC10BD00220288E4
:101EB000944B98420ED0994B98420BD0B0F1804F82
:101EC00008D0914B984205D0904B984202D0904B4D
:101ED000984204D14FF68F731A404B881A438D4BAA
:101EE000984207D08C4B984204D04FF6FF431A40DB
:101EF000CB881A4302808B8883850B880385814BAE
:101F000098420BD0854B984208D08B4B984205D015
:101F10008A4B984202D08A4B984201D10B7A0386B1
:101F200001238382704770B5002400220023058CB2
:101F30004FF6FE7635400584028C8388048B4FF67D
:101F40008F752C40B51E2C400D882C43751E2A40E1
:101F50000D892A434D882A436A4DA8420BD06F4D04
:101F6000A84208D0744DA84205D0744DA84202D0B2
:101F7000734DA84213D14FF6F7752A404D892A4375
:101F80004FF6FB752A408D882A434FF6FF652B409C
:101F90004FF6FF552B408D892B43CD892B438380F2
:101FA0000483CD888586028470BD70B5002400222C
:101FB0000023058C4FF6EF7635400584028C83882C
:101FC000048B48F6FF752C404FF6FF452C400D88DA
:101FD0004FF6FF7606EA05252C434FF6DF752A40BB
:101FE0000D8906EA05152A434D8806EA05152A4398
:101FF000444DA84202D0494DA8421DD14FF67F75ED
:102000002A404D894FF6FF7606EA05152A434FF61A
:10201000BF752A408D8806EA05152A434FF6FF351D
:102020002B404FF2FF752B408D8906EA85052B4327
:10203000CD8906EA85052B4383800483CD880587F7
:10204000028470BD70B5002400220023058C4FF679
:10205000FF6635400584028C8388848B4FF68F752C
:102060002C404FF6FC752C400D882C434FF6FF5545
:102070002A400D894FF6FF7606EA05252A434D884A
:1020800006EA05252A431F4DA84202D0234DA84247
:102090001DD14FF2FF752A404D894FF6FF7606EAB3
:1020A00005252A434FF6FF352A408D8806EA052587
:1020B0002A434EF6FF752B404DF6FF752B408D8958
:1020C00006EA05152B43CD8906EA05152B438380C7
:1020D0008483CD888587028470BD70B5002200237B
:1020E0000024058C4EF6FF7635400584038C8488E9
:1020F000828B48F6FF752A404FF6FF452A400D882F
:1021000020E00000002C01400004004000080040D6
:10211000000C00400010004000140040003401405A
:10212000004C0140005001400054014000180040A4
:10213000001C0040002000400040014000440140DD
:10214000004801404FF6FF7606EA05252A434DF682
:10215000FF752B400D8906EA05352B434D8806EAAD
:1021600005352B43FA4DA84202D0FA4DA84208D1BA
:102170004BF6FF752C408D894FF6FF7606EA8515E4
:102180002C4384808283CD88A0F84050038470BDA6
:10219000828B4FF2FF331A408283828B4FF6FF739C
:1021A00003EA01231A4382837047F0B50C461546B3
:1021B000002200210026078C4EF6FF7C07EA0C0760
:1021C0000784828B018C4FF6FF7707EA043640F6CE
:1021D000FF473A404FF6FF7707EA05273A434FF6A5
:1021E000FF7707EA03373A43D94FB8420ED0D94FA9
:1021F000B8420BD0B0F1804F08D0D74FB84205D0CD
:10220000D64FB84202D0D64FB84206D14DF6FF772E
:10221000394046F48057394305E047F6FF573940C7
:1022200044F48057394382830184F0BD828B4FF69A
:10223000F3731A408283828B0A4382837047F0B51E
:102240000C461546002200210026078C4FF6FF6C35
:1022500007EA0C070784828B018C4FF6FF7707EAA9
:1022600004264FF60C773A404FF6FF7707EA03173C
:102270002F433A43B64FB8420ED0B64FB8420BD0B8
:10228000B0F1804F08D0B44FB84205D0B34FB84238
:1022900002D0B34FB84206D14FF6FF57394046F44B
:1022A0008077394305E04FF2FF57394044F4807797
:1022B000394382830184F0BD028B4FF2FF331A4011
:1022C0000283028B4FF6FF7303EA01231A43028352
:1022D0007047F0B50C461546002200210026078CF9
:1022E0004FF6EF7C07EA0C070784028B018C4FF650
:1022F000FF7707EA041640F6FF473A404FF6FF77AC
:1023000007EA03373A434FF6FF7707EA05273A43D0
:102310008F4FB8420ED08F4FB8420BD0B0F1804FE4
:1023200008D08D4FB84205D08C4FB84202D08C4FA8
:10233000B84206D14FF6DF77394046F010073943EF
:1023400005E04FF65F77394044F0100739430283C8
:102350000184F0BD028B4FF6F3731A400283028BA7
:102360000A4302837047F0B50C461546002200214F
:10237000068C4FF6FE773E400684028B018C4FF6AA
:102380000C7632407E1C06EA03162E433243704E12
:10239000B0420ED06F4EB0420BD0B0F1804F08D09B
:1023A0006D4EB04205D06D4EB04202D06C4EB04280
:1023B00006D14FF6FD76314044F00106314305E089
:1023C0004FF6F576314044F0010631430283018433
:1023D000F0BD70B505460C465D4885420ED05D489F
:1023E00085420BD0B5F1804F08D05B48854205D0BF
:1023F0005A48854202D05A48854200D100E000BFC9
:10240000208850B92389A28861882846FFF7ABFF4E
:10241000E1882846FFF79EFF25E0208804280AD19E
:102420002389A28861882846FFF753FFE188284660
:10243000FFF742FF17E0208808280AD12389A288E5
:1024400061882846FFF7FBFEE1882846FFF7EEFE8D
:1024500009E02389A28861882846FFF7A6FEE18863
:102460002846FFF795FE70BD2DE9F04105460C4664
:1024700000260127608808B9022600E00026A0880F
:10248000012801D1022700E001272088A0B9238973
:10249000A28861882846FFF766FFE1882846FFF793
:1024A00059FF23893A4631462846FFF712FFE18853
:1024B0002846FFF701FF13E02389A2886188284698
:1024C000FFF707FFE1882846FFF7F6FE23893A4623
:1024D00031462846FFF747FFE1882846FFF73AFFD5
:1024E000BDE8F0810A884B881A438B881A43CB8851
:1024F0001A430B891A434B891A438B891A43A0F854
:10250000442070474FF6FF71818000210180C18017
:102510004180017270470021018041808180C1802B
:10252000018141818181C181704700210180418009
:10253000012181800021C18001817047002101803B
:1025400041808180C180018141818181704700008B
:10255000002C01400034014000040040000800400D
:10256000000C004021B1028842F00102028004E028
:1025700002884FF6FE731A400280704731B1B0F8FE
:10258000442042F40042A0F8442005E0B0F8442082
:10259000C2F30E02A0F8442070471AB183890B439E
:1025A000838102E083898B438381704781827047F6
:1025B00041EA0203A0F8483070471AB183890B43FF
:1025C000838102E083898B438381704701894FF6C1
:1025D000F8721140018170470A46002101894FF6C7
:1025E0008F73194011430181704730B504460D4681
:1025F00029462046FFF7F0FF208940F007002081A0
:1026000030BD2DE9F04104460D4616461F46602DAB
:1026100006D13B46012231462046FFF75AFE05E02F
:102620003B46012231462046FFF79DFE29462046C3
:10263000FFF7D2FF208940F007002081BDE8F0813C
:1026400030B50C4600210189C9B24FF6FF7505EA85
:102650000325154325432943018130BD2DE9F04170
:1026600005460E4617469846002443463A463146EC
:102670002846FFF7E5FF2C894FF6F870044044F038
:1026800007044FF68F70044044F070042C81BDE8BD
:10269000F081F0B504460D4616461F463B463246CD
:1026A00029462046FFF7CCFF208940F48040208156
:1026B000F0BD0185828270470A46002101884FF6ED
:1026C0008F731940114301807047F0B50C461546D1
:1026D0001E460021002200230189028B038C4FF645
:1026E000F877394021434FF6FC473A4040F2011752
:1026F0003A434FF6DD773B404FF6FF7707EA061780
:102700002F433B43018102830384F0BD0A4600212D
:10271000018B4FF68F7319401143018370470A46AE
:102720000021018B48F6FF7319404FF6FF7303EA4F
:1027300002231943018370470A460021818B4FF61B
:102740008F7319401143818370470A460021818BA2
:1027500048F6FF7319404FF6FF7303EA022319434B
:102760008183704721B1028842F08002028004E038
:1027700002884FF67F731A400280704721B1828829
:1027800042F00402828004E082884FF6FB731A4014
:102790008280704721B1828842F00802828004E082
:1027A00082884FF6F7731A408280704721B1828881
:1027B00042F00102828004E082884FF6FE731A40E4
:1027C000828070470A460021018B4FF6F77319404B
:1027D0001143018370470A460021018B4FF2FF73BA
:1027E00019404FF6FF7303EA022319430183704730
:1027F0000A460021818B4FF6F773194011438183FC
:1028000070470A460021818B4FF2FF7319404FF643
:10281000FF7303EA02231943818370470A460021AC
:10282000018B4FF6FB7319401143018370470A4631
:102830000021018B4FF6FF3319404FF6FF7303EA77
:1028400002231943018370470A460021818B4FF60A
:10285000FB7319401143818370470A460021818B25
:102860004FF6FF3319404FF6FF7303EA0223194373
:10287000818370470A460021018B4FF67F73194010
:102880001143018370470A460021018BC1F30E01F9
:102890004FF6FF7303EA02231943018370470A4688
:1028A0000021818B4FF67F7319401143818370475C
:1028B0000A460021818BC1F30E014FF6FF7303EA34
:1028C00002231943818370470A460021018C4FF689
:1028D000FD7319401143018470470A460021018CA1
:1028E0004FF6F77319401143018470470A460021DF
:1028F000018C4FF6DF7319404FF6FF7303EA0213A2
:102900001943018470470A460021018C4FF67F73FA
:1029100019404FF6FF7303EA02131943018470470D
:102920000A460021018C4FF6FF5319404FF6FF7302
:1029300003EA02231943018470470A460021018CEF
:102940004FF2FF7319404FF6FF7303EA0223194356
:10295000018470470A460021018C4DF6FF7319402F
:102960004FF6FF7303EA023319430184704730B511
:10297000002301248C40A3B2048C9C430484048C67
:1029800002FA01F5ADB22C43048430BD30B500230A
:1029900004248C40A3B2048C9C430484048C02FA6B
:1029A00001F5ADB22C43048430BD70B50346002060
:1029B00000241846183001258D40ACB21D8CA5436B
:1029C0001D8409B1082909D100EB6100056825F0D3
:1029D000700505600568154305600EE00D1FC5F321
:1029E0004E052844056825F4E045056005684FF666
:1029F000FF7606EA02263543056070BD21B10288E4
:102A000042F00202028004E002884FF6FD731A4091
:102A10000280704721B1028842F00402028004E083
:102A200002884FF6FB731A400280704721B18288FA
:102A300042F08002828004E082884FF67F731A4061
:102A40008280704702884FF6F7731A40028002882E
:102A50000A430280704782884FF68F731A40828043
:102A600082880A438280704702894FF6F8731A40C1
:102A7000028102890A430281704702894FF67F73FF
:102A80001A40028102890A4302817047818470479B
:102A900081857047818670470187704781877047BD
:102AA000A0F84010704702884FF6FF431A4002809A
:102AB00002880A43028070470146888E70470146AB
:102AC000088F70470146888F70470146B1F8400073
:102AD00070470146888C70470146088D7047024652
:102AE0000020138A0B400BB1012000E0002070474A
:102AF000CA430282704730B50246002000230024FA
:102B0000158A05EA0103958905EA010413B10CB1A0
:102B1000012000E0002030BDCA430282704700005F
:102B200010B56FF00400FEF74AFB2E4800682E49EE
:102B3000B0FBF1F02D4908700846007800EB400129
:102B4000C1EBC0104FF6FF7101EAC00028490880B0
:102B500010BD0146254A12784A434FF0E0235A61DE
:102B600000229A611A46126942F001021A6100BFFE
:102B70004FF0E022106900F001021AB100F4803237
:102B8000002AF5D04FF0E022126922F001024FF046
:102B9000E0231A6100229A6170470146144A1288A4
:102BA0004A434FF0E0235A6100229A611A461269A3
:102BB00042F001021A6100BF4FF0E022106900F0FC
:102BC00001021AB100F48032002AF5D04FF0E02261
:102BD000126922F001024FF0E0231A6100229A618B
:102BE00070470000B801002000127A00F2010020B6
:102BF000F401002010B54FF4A060FEF791FA10BD6B
:102C000010B586B00446012144F20400FEF712FE1E
:102C10004FF40070ADF8140003208DF81600182052
:102C20008DF8170005A97648FEF748FB4FF4806041
:102C3000ADF8140004208DF8170005A97048FEF7C0
:102C40003DFB25208DF8000003208DF801008DF854
:102C5000020001208DF803006846FEF766FA019431
:102C60000020ADF80800ADF80A00ADF80C00ADF892
:102C700010000C20ADF80E0001A96248FEF781FE9D
:102C8000012240F225515F48FEF713FF01215D4804
:102C9000FEF703FF06B010BD10B5044621465948A3
:102CA000FEF768FF00BF40215648FEF7D1FF00281D
:102CB000F9D040215348FEF7D8FF10BD10B50446A7
:102CC00003E02078FFF7E8FF641C20780028F8D1A3
:102CD00010BD10B540F225514A48FEF7CFFFE8B1CC
:102CE0004848FEF74BFFC1B2474802680068401CE5
:102CF000454B18604548815418460068B0F5966FFA
:102D000005D30020194608600120414908700120C0
:102D10004049087020213B48FEF7A7FF10BD10B5C1
:102D200086B0044601210420FEF784FD01214804F9
:102D3000FEF78DFD0820ADF8140004208DF8170073
:102D400005A92F48FEF7BAFA0420ADF814000320B5
:102D50008DF8160018208DF8170005A92848FEF7F1
:102D6000ADFA26208DF8100003208DF81100022006
:102D70008DF8120001208DF8130004A8FEF7D5F994
:102D800000940020ADF80400ADF80600ADF808008E
:102D9000ADF80C000C20ADF80A0069461E48FEF79D
:102DA000F0FD012240F225511B48FEF782FE012171
:102DB0001948FEF772FE06B010BD10B50446214654
:102DC0001548FEF7D7FE00BF40211348FEF740FF2D
:102DD0000028F9D040211048FEF747FF10BD10B57C
:102DE00040F225510C48FEF749FF40B10A48FEF772
:102DF000C5FE0A49087020210748FEF736FF10BDBE
:102E00000008014000380140F80100207202002053
:102E1000FD010020FC01002000440040FF010020D3
:102E20000FB41CB5074B06AA7B4469460090059871
:102E300000F0FBF80020694600F00AF91CBC5DF8C0
:102E400014FB0000250200002DE9F0410E46044667
:102E5000002020622046E168884730B3252805D04D
:102E6000D4E901219047206A401CF2E7E16820463E
:102E700000278847050018D0A5F14100192802D87D
:102E800020354FF400673246294620462760FDF77B
:102E900087F940B1012804D0F61D26F00706083650
:102EA000D8E7361DD6E72846DAE7206ABDE8F08184
:102EB0002DE9F0410646002410687529314616A513
:102EC00010D0AFF30080002802DA404213A507E0DB
:102ED00031688A0701D512A502E0490704D511A57A
:102EE000012401E0AFF3008000210A2206F124074B
:102EF00009E0B0FBF2FCB0FBF2F302FB1C00303047
:102F000078541846491C0028F3D123462A463046F7
:102F1000BDE8F04100F02AB8000000002D000000DC
:102F20002B0000002000000010B5431C02E010F848
:102F3000011B71B18107FAD14FF0013202C88C1A1E
:102F40008C4314EAC211F9D0C01A0A0603D0C01E7D
:102F500010BDC01A10BD0A0401D0801E10BD0902A8
:102F6000FCD0401E10BD7047704770472DE9F047F8
:102F70000D4699469246044600F1240801688806E9
:102F800004D5E06921F01001216000E00120A84291
:102F900001DD471B00E00027A1697A1902EB090057
:102FA000081AA0612078C00602D42046AFF3008042
:102FB000002608E0D4E901211AF806009047206AAB
:102FC000401C761C20624E45F4DB2078C0060AD5F2
:102FD0002046AFF3008006E0D4E90121302090477D
:102FE000206A401C2062381EA7F10107F4DC07E0CC
:102FF000D4E9012118F805009047206A401C20629E
:10300000281EA5F10105F3DC2046AFF300802078EF
:10301000000602D50220BDE8F0870120FBE7000092
:1030200001694A1C02610878704700B58FB0CDE98C
:1030300001310021059105497944CDE9031011467C
:103040006846FFF701FF0FB000BD0000E5FFFFFF7E
:103050000A6802F8010B0A607047754600F02CF808
:10306000AE4605006946534620F00700854618B075
:1030700020B5FEF743F8BDE820404FF000064FF0C2
:1030800000074FF000084FF0000B21F00701AC469D
:10309000ACE8C009ACE8C009ACE8C009ACE8C009BC
:1030A0008D46704710B50446AFF300802046BDE85A
:1030B0001040FDF787B80000004870472407002043
:1030C00001491820ABBEFEE7260002007047000051
:1030D000F030000800000020000200002801000875
:1030E0007C31000800020020880B000084010008E9
:1030F000882BC7B0B7BDB5BDD5BEC9D6D2A9BED382
:10310000D2BBA3ACCFC2B3B5B5C4B3CBBFCDC7EBB5
:10311000CDF9BAF3C3C5D7DFA3ACC9CF164811CBDD
:10312000A2BFA8A3ACC7EBCEAAD3D0D0E8D2AA182E
:10313000100BC8C3D7F9A3A1D0BBD0BBC9550B5145
:10314000B6FE550B51C8FD550B51CBC4550B43CEA4
:10315000E55531C23C84A24A041809010203040661
:103160000708090A12011AFD0F19041A030439216C
:0C317000291D6921F5020406080000007A
:04000005080000ED02
:00000001FF
